:020000040800F2
:100000004005002045010008B9070008BB070008AB
:10001000BF070008C3070008C7070008000000006A
:10002000000000000000000000000000CB070008F6
:10003000CD07000800000000CF070008D107000826
:100040005F0100085F0100085F0100085F01000810
:100050005F0100085F0100085F0100085F01000800
:100060005F0100085F0100085F0100085F010008F0
:100070005F0100085F0100085F0100085F010008E0
:100080005F0100085F0100085F0100085F010008D0
:100090005F0100085F0100085F0100085F010008C0
:1000A0005F0100085F0100085F0100085F010008B0
:1000B0005F0100085F0100085F0100085F010008A0
:1000C0005F0100085F0100085F0100085F01000890
:1000D0005F0100085F010008D90700085F01000800
:1000E0005F0100085F0100085F0100085F01000870
:1000F0005F0100085F0100085F0100085F01000860
:100100005F0100085F0100085F0100085F0100084F
:100110005F0100085F0100085F0100085F0100083F
:100120005F0100085F0100085F0100085F0100082F
:10013000DFF80CD001F088FC00480047A506000855
:10014000400500200648804706480047FEE7FEE7D6
:10015000FEE7FEE7FEE7FEE7FEE7FEE7FEE7FEE777
:10016000BD140008310100081CB5F84800780A21C8
:1001700090FBF1F03030C0B28DF80400F348007805
:1001800090FBF1F201FB12003030C0B28DF8050097
:10019000EF48007890FBF1F03030C0B28DF80000ED
:1001A000EB48007890FBF1F201FB12003030C0B256
:1001B0008DF801009DF804200021212001F0ECFAC7
:1001C0009DF805200021272001F0E6FA9DF8002087
:1001D0000221212001F0E0FA9DF8012002212720D0
:1001E00001F0DAFA1CBD10B5DA48007805281AD1FA
:1001F0000020D9490870D74908700522002118202D
:1002000001F0D6FA06220021302001F0D1FA0522B1
:100210000221182001F0CCFA06220221302001F040
:10022000C7FAFFF7A1FFCB480078012806D00228C3
:100230001ED0032836D0042868D14DE03C2200218E
:10024000182001F0A9FA3C2200211E2001F0A4FA96
:1002500006220021302001F0ABFA052202211820ED
:1002600001F0A6FA06220221302001F0A1FA4EE0A8
:100270003E220021302001F08FFA3E22002136205C
:1002800001F08AFA05220021182001F091FA0522D6
:100290000221182001F08CFA06220221302001F000
:1002A00087FA34E03C220221182001F075FA3C2242
:1002B00002211E2001F070FA05220021182001F011
:1002C00077FA06220021302001F072FA062202217C
:1002D000302001F06DFA1AE03E220221302001F0B8
:1002E0005BFA3E220221362001F056FA0522002157
:1002F000182001F05DFA06220021302001F058FAA2
:1003000005220221182001F053FA00E000BF00BFCF
:1003100010BD10B591480078012804D002281BD0E8
:1003200003283ED131E001208B49087089480078CC
:10033000022805D185480078401E8449087008E0ED
:1003400084480078042804D181480078401E804900
:100350000870FFF709FF25E001207F4908707D48FC
:100360000078012805D179480078401C7749087049
:1003700008E078480078032804D175480078401CCC
:1003800073490870FFF7F0FE0CE072480078401CDB
:100390007049087070480078012801D10520087064
:1003A00000E000BF00BF10BD10B5072204210020EF
:1003B00001F0FEF9082204210C2001F0F9F90222D3
:1003C0000421182001F0F4F909220421242001F06D
:1003D000EFF90A220421302001F0EAF90C2204216D
:1003E0003C2001F0E5F910BD10B5072204210020E2
:1003F00001F0DEF9082204210C2001F0D9F90222D3
:100400000421182001F0D4F90B220421242001F04A
:10041000CFF909220421302001F0CAF90A2204216F
:100420003C2001F0C5F910BD10B50121042000F0F9
:1004300070FD4FF480704A490880032088701020B6
:10044000C870484800F0B2FA4FF48071454800F097
:1004500058FB10BD10B5FFF7C7FF434880780A214D
:1004600090FBF1F03030414988703F4880780A2194
:1004700090FBF1F201FB120030303C49C8702E2095
:10048000087130204871384800780A2190FBF1F05B
:10049000303036494872344800780A2190FBF1F236
:1004A00001FB12003030314988722E20C872302092
:1004B00008734620C873FFF7B7FF10BD10B501F0F1
:1004C0002DF900221146104601F072F90122002197
:1004D0000C2001F06DF905220021182001F068F9C7
:1004E00006220021302001F063F9042202210020BD
:1004F00001F05EF9012202210C2001F059F90522D8
:100500000221182001F054F906220221302001F0C6
:100510004FF907220421002001F04AF908220421A2
:100520000C2001F045F902220421182001F040F9C5
:1005300009220421242001F03BF90A220421302061
:1005400001F036F9FFF710FE10BD0000300000206A
:100550003100002032000020330000202F00002056
:1005600036000020000801403A0000200000002072
:1005700010B5884880780A2190FBF1F03030864928
:100580008870844880780A2190FBF1F201FB120008
:1005900030308149C8702E200871302048717D4864
:1005A00000780A2190FBF1F030307B49487279489D
:1005B00000780A2190FBF1F201FB120030307649FD
:1005C00088722E20C872302008735420C873FFF739
:1005D0002BFF10BD1CB500246E4880780A2190FBCB
:1005E000F1F03030C0B28DF804006A48807890FB9A
:1005F000F1F201FB12003030C0B28DF805002E2060
:100600008DF806006348C07890FBF1F03030C0B23E
:100610008DF807005F48007890FBF1F03030C0B2F1
:100620008DF800005B48007890FBF1F201FB1200AE
:100630003030C0B28DF801002E208DF802005548F0
:10064000407890FBF1F03030C0B28DF8030001AA81
:1006500000213C2001F08FF800BF04E0002001A938
:100660000855601CC4B2042CF8DB6A4602213C2009
:1006700001F081F8002404E000200DF80400601C63
:10068000C4B2042CF8DB1CBD10B501F0C3F800F0B7
:1006900095FF01F029F900F0BFF801F00AF800F029
:1006A00009F910BDFFF7F0FFFFF708FF71E03948C7
:1006B00001F07BF9012823D1FFF78CFF35488078C2
:1006C00036490978884208DDFFF752FF2B2032496E
:1006D000887101203249087002E02D202E4988716E
:1006E0002C4800782F490978884206DD2B202A49BA
:1006F000487301202A49087002E02D2026494873DA
:1007000027480078012811D12748007801280DD109
:10071000FFF72EFF002022490870FFF7CFFE0020D0
:1007200021490870214908801D4908704FF48061F3
:100730001F4800F0CCF968B91B480078012809D19E
:10074000FFF788FEFFF750FE002017490870174991
:10075000088001E0FFF728FE00F06FF815490870E7
:10076000FFF7D7FDFFF73FFD0A2001F096F80E488E
:10077000007870B90D4801880088401C0B4A108031
:10078000B1F5FA7F05DB0120074908700020044914
:1007900008708CE73A0000200000002030000020A4
:1007A00034000020310000202E0000202C0000200A
:1007B000000C01402F000020704700BFFEE700BF83
:1007C000FEE700BFFEE700BFFEE7704770477047D7
:1007D00010B501F075F810BD10B540F225510B4869
:1007E00000F0C5FD012810D140F22551074800F066
:1007F000E8FD064800F03BFD0549064A12688854AA
:1008000004480068401C0349086010BD00440040D3
:10081000740000204000002008B50121082000F0ED
:1008200078FB4FF45070ADF8000048208DF80300BD
:1008300069461B4800F0BAF808BD10B519480078A1
:10084000E8B11948006828B11848006810B1184884
:100850000068A0B9052001F020F8002011490870B7
:100860001148006808B9012010BD1048006808B997
:100870000220F9E70E48006878B90320F4E70A4837
:100880000068012809D109480068012805D10848F5
:100890000068012801D1034908700020E4E7000046
:1008A000000C014044000020188121422081214297
:1008B0002481214208B50121082000F02AFB4FF4D1
:1008C0008060ADF8000001208DF8020048208DF80E
:1008D00003006946044800F069F84FF4806102485B
:1008E00000F00FF908BD0000000C014010B50446EF
:1008F000CA48844208D10121042000F024FB0021D1
:10090000042000F020FB46E0C548844208D10121C4
:10091000082000F018FB0021082000F014FB3AE04A
:10092000C048844208D10121102000F00CFB0021B6
:10093000102000F008FB2EE0BB48844208D10121C2
:10094000202000F000FB0021202000F0FCFA22E033
:10095000B648844208D10121402000F0F4FA002179
:10096000402000F0F0FA16E0B148844208D101219D
:10097000802000F0E8FA0021802000F0E4FA0AE08C
:10098000AC48844207D10121801500F0DCFA002137
:10099000A01500F0D8FA10BD10B50121084600F0EE
:1009A000D2FA0021012000F0CEFA10BD2DE9F0416D
:1009B000024600250026002000230024002791F88D
:1009C00003C00CF00F0591F803C01CF0100F03D00A
:1009D00091F802C04CEA0505B1F800C01CF0FF0F09
:1009E00031D0146800202BE04FF0010C0CFA00F31A
:1009F000B1F800C00CEA03069E4220D183004FF0FC
:100A00000F0C0CFA03F7BC4305FA03FC4CEA040490
:100A100091F803C0BCF1280F06D14FF0010C0CFA7D
:100A200000FCC2F814C00AE091F803C0BCF1480F02
:100A300005D14FF0010C0CFA00FCC2F810C0401CAC
:100A40000828D1D31460B1F800C0BCF1FF0F34DD29
:100A5000546800202EE000F1080C4FF0010808FA5D
:100A60000CF3B1F800C00CEA03069E4221D18300CA
:100A70004FF00F0C0CFA03F7BC4305FA03FC4CEAE9
:100A8000040491F803C0BCF1280F05D100F1080C53
:100A900008FA0CF8C2F8148091F803C0BCF1480FB2
:100AA00007D100F1080C4FF0010808FA0CF8C2F861
:100AB0001080401C0828CED35460BDE8F0814FF66A
:100AC000FF710180022181700421C17070470246CC
:100AD000002093680B4201D0012000E00020704705
:100AE0000146886880B2704702460020D3680B42F6
:100AF00001D0012000E0002070470146C86880B2A4
:100B0000704701617047416170470AB1016100E0BF
:100B100041617047C16070474FF480320A4382617F
:100B20008161826182698269704702460020424B7E
:100B300018684FF68073184040EA021008433E4B95
:100B4000186070473D49C8617047F0B50A460023F8
:100B500000240021002500F00046B6F1004F02D12C
:100B6000354EF16901E0344E7168C0F3034583B23C
:100B700000F44016B6F5401F08D121F070612E4EEA
:100B8000766826F070662C4F7E6012E000F48016C6
:100B9000B6F5801F06D1032606FA05F4A14341F0FD
:100BA000706106E0460D360103FA06F6B14341F0E6
:100BB000706122B1460D360103FA06F6314300F0AA
:100BC0000046B6F1004F02D11B4EF16101E01A4E12
:100BD0007160F0BD30B500228B071C0F0F2303FAA4
:100BE00004F2154B08338C1053F824309343124C05
:100BF00008348D1044F8253023468C1053F82430E7
:100C00008C07240F00FA04F423430B4C08348D1096
:100C100044F8253030BD0A4908607047000801409B
:100C2000000C014000100140001401400018014078
:100C3000001C014000200140000001400000204253
:100C4000DC002042DB48006840F00100D949086020
:100C500008464068D8490840D649486008460068B8
:100C6000D6490840D34908600846006820F480202F
:100C700008600846406820F4FE0048604FF41F00FA
:100C800088607047CB49096821F48031C94A1160F6
:100C90001146096821F480211160B0F5803F03D02E
:100CA000B0F5802F0ED106E0C249096841F48031C9
:100CB000C04A116007E0BF49096841F4A021BD4A5C
:100CC000116000E000BF00BF704710B50146002270
:100CD000002300204A11012A02D1B64C236806E005
:100CE000022A02D1B34C236A01E0B24C636A01F0DC
:100CF0001F02012494401C4201D0012000E000208A
:100D000010BD70B500240025002600BF3120FFF77C
:100D1000DCFF0646641CB4F5A06F01D0002EF5D0B0
:100D20003120FFF7D2FF08B1012500E00025284659
:100D300070BD014600209F4A106820F0F80040EA8C
:100D4000C100106070479E4908607047024600204D
:100D5000984B586820F47C1042EA01031843954BE5
:100D60005860704796490866704701460020914ACE
:100D7000506820F003000843506070478D48406879
:100D800000F00C007047014600208A4A506820F0AD
:100D9000F00008435060704701460020854A5068C3
:100DA00020F4E06008435060704701460020814A0B
:100DB000506820F4605040EAC1005060704729B18B
:100DC0007C4A527A02437B4B5A7206E0794A527A45
:100DD000C343DBB21A40774B5A72704779490860B7
:100DE000704701460020734A506820F44040084391
:100DF000506070470021744A11706E4A82F82010CA
:100E0000012802D0042808D103E001216E4A1170A4
:100E100004E005216C4A117000E000BF00BF70477C
:100E20006A49086070476349096A0143614A11626F
:100E3000704767490860704730B5002100220024E0
:100E400000235C4D6D6805F00C0121B1042905D02B
:100E5000082923D105E05F4D056022E05D4D056066
:100E60001FE0544D6D6805F47012524D6D6805F425
:100E70008034022505EB92421CB9574D554305605D
:100E80000BE04C4D6D6815F4003F03D0524D5543B7
:100E9000056002E04F4D5543056002E04D4D056091
:100EA00000BF00BF434D6D6805F0F00109094B4DCF
:100EB0006B5C0568DD4045603E4D6D6805F4E061A2
:100EC000090A464D6B5C4568DD408560394D6D68AB
:100ED00005F46051C90A414D6B5C4568DD40C56051
:100EE000344D6D6805F44041890B3D4D6B5CC56820
:100EF000B5FBF3F5056130BD29B12E4A52690243B5
:100F00002C4B5A6104E02B4A52698243294B5A61A7
:100F1000704729B1274A92690243264B9A6104E03F
:100F2000244A92698243234B9A61704729B1214A2E
:100F3000D26902431F4BDA6104E01E4AD269824340
:100F40001C4BDA61704729B11A4AD2680243194B27
:100F5000DA6004E0174AD2688243164BDA607047C1
:100F600029B1144A12690243124B1A6104E0114A72
:100F7000126982430F4B1A6170471A490860704723
:100F80000F49C86470470B49C87170470948406AE7
:100F900040F0807007494862704701460020054ACA
:100FA00092680A4201D0012000E000207047014908
:100FB00088727047001002400000FFF8FFFFF6FE45
:100FC00000004242D80042422010024080044242C7
:100FD0003C04424200127A0000093D004500002016
:100FE000550000204004424210B50446FC488442AB
:100FF00009D101218803FFF7A6FF00214FF48040AB
:10100000FFF7A1FF32E0F748844209D101214804EB
:10101000FFF7A6FF00214FF40030FFF7A1FF25E006
:10102000F148844209D101218804FFF799FF00218A
:101030004FF48020FFF794FF18E0EC48844209D178
:101040000121C804FFF78CFF00214FF40020FFF7B7
:1010500087FF0BE0E648844208D101210805FFF72D
:101060007FFF00214FF48010FFF77AFF10BD2DE9BC
:10107000F04786B005460E460024A24600BFA146B2
:101080000027B08900B100BF2F462C8A4CF6FF70B4
:101090000440F08804432C82AC894EF6F3100440DF
:1010A000B08831890843718908430443AC81AC8A14
:1010B0004FF6FF400440B0890443AC8201A8FFF71B
:1010C000BBFEC748874202D1DDF810A001E0DDF881
:1010D0000CA0A88910F4004F08D00AEBCA0000EB5E
:1010E0000A1031684900B0FBF1F807E00AEBCA00CA
:1010F00000EB0A1031688900B0FBF1F86420B8FBFE
:10110000F0F004012009642101FB1089A88910F482
:10111000004F08D0322000EBC900B0FBF1F000F026
:101120000700044308E0322000EB09106421B0FB03
:10113000F1F000F00F0004432C8106B0BDE8F08709
:101140004FF41651016000218180C18001810C2182
:10115000418100218181704710B502460020108A2C
:101160004FF2FF0318400B884C8823438C8823439D
:10117000CC8823431843108210BD00210180418098
:101180008180C180704721B1828942F400528281FE
:1011900004E082894DF6FF731A4082817047F0B5F2
:1011A00003460024002600250020A1F510676A3FB1
:1011B00000D100BF1846C1F3421401F01F060127F9
:1011C00007FA06F5012C01D10C3004E0022C01D104
:1011D000103000E014301AB107682F43076002E0B6
:1011E0000768AF430760F0BD10B51AB1838A0B439F
:1011F000838204E0838ACC43A4B22340838210BD5F
:10120000028A4FF6F0731A400282028A0A4302826F
:10121000704782894FF2FF731A40828182890A43A4
:101220008281704721B1828942F00202828104E00A
:1012300082894FF6FD731A4082817047028A4FF609
:10124000DF731A400282028A0A430282704721B188
:10125000028A42F48042028204E0028A4BF6FF7363
:101260001A4002827047C1F308028280704701462B
:101270008888C0F308007047818941F001018181AD
:101280007047028BD2B20283028B42EA01220283B0
:101290007047028B02F47F420283028B0A4302836F
:1012A000704721B1828A42F02002828204E0828A61
:1012B0004FF6DF731A408282704721B1828A42F072
:1012C0001002828204E0828A4FF6EF731A40828213
:1012D000704721B1828A42F00802828204E0828A49
:1012E0004FF6F7731A408282704721B1828942F427
:1012F0000042828103E08289C2F30E02828170473C
:1013000021B1828A42F40062828204E0828A4FF232
:10131000FF731A4082827047828A4FF6FB731A402D
:101320008282828A0A438282704721B1828A42F095
:101330000202828204E0828A4FF6FD731A408282A2
:10134000704702460020B1F5007F00D100BF13882E
:101350000B4201D0012000E00020704701F4007230
:10136000B2F5007F00D100BFCA430280704770B55C
:1013700002460024002300250020A1F510666A3EE5
:1013800000D100BFC1F3421501F01F03012606FA88
:1013900003F3012D02D19689334006E0022D02D1DC
:1013A000168A334001E0968A33400C12012606FA71
:1013B00004F41688344013B10CB1012000E0002081
:1013C00070BD10B500220023A1F510646A3C00D165
:1013D00000BF0A1201249440A3B2DC43048010BD74
:1013E000003801400044004000480040004C0040EC
:1013F0000050004000210020674A126842F4803209
:10140000654B1A6000BF644A126802F40030491C40
:1014100010B9B1F5A06FF6D15F4A126812F4003F1F
:1014200001D0012000E00020012842D15B4A12686F
:1014300042F01002594B1A601A46126822F0030259
:101440001A601A46126842F002021A60524A526842
:10145000514B5A601A4652685A601A46526842F412
:1014600080625A601A46526822F47C125A601A4608
:10147000526842F4E8125A601A46126842F08072CA
:101480001A6000BF444A126812F0007FFAD0424A44
:10149000526822F00302404B5A601A46526842F0EA
:1014A00002025A6000BF3C4A526802F00C02082A4D
:1014B000F9D1704710B5FFF79DFF10BD10B5364844
:1014C000006840F00100344908600846406834492B
:1014D00008403149486008460068324908402E49B2
:1014E00008600846006820F48020086008464068CC
:1014F00020F4FE0048604FF41F008860FFF7DAFF19
:101500004FF000602849086010BD10B50021002090
:101510000022214B5B6803F00C0121B1042906D0A5
:10152000082928D107E0214B214C236027E01F4BDD
:101530001F4C236023E0184B5B6803F47010164BBC
:101540005B6803F48032022303EB904022B9194B0D
:101550004343174C23600DE00F4B5B6813F4003FCF
:1015600004D0144B4343124C236003E00F4B43431E
:101570000F4C236003E00D4B0D4C236000BF00BFF8
:10158000054B5B68C3F303130B4CE15C084B1B6812
:10159000CB40074C236010BD0010024000200240E9
:1015A0000000FFF8FFFFF6FE08ED00E000127A00F1
:1015B0005C00002000093D006000002008B501210A
:1015C0000420FFF7A6FC7320ADF8000002208DF880
:1015D000020010208DF8030069468B48FFF7E6F9FA
:1015E00008BD10B5012202218748FFF78EFA10BD11
:1015F00010B5002202218448FFF787FA10BD10B50C
:10160000012211468048FFF780FA10BD10B5002274
:1016100001217D48FFF779FA10BD10B50122402164
:101620007948FFF772FA10BD10B5002240217648C4
:10163000FFF76BFA10BD10B5012220217248FFF7A9
:1016400064FA10BD10B5002220216F48FFF75DFA43
:1016500010BD10B5012210216B48FFF756FA10BDDE
:1016600010B5002210216848FFF74FFA10BD70B581
:1016700004460E46FFF7BCFF16B1FFF7CEFF01E0B0
:10168000FFF7D2FF002511E014F0800F02D0FFF722
:10169000D2FF01E0FFF7D6FF6006040EFFF7E0FF80
:1016A000FFF7D7FFFFF7DCFF681CC5B2082DEBDBA7
:1016B00070BD10B5FFF795FFFFF7A1FFC82000F040
:1016C000DCF8FFF7A3FF142000F0E7F8FFF797FF1F
:1016D000C82000F0D2F800212120FFF7C8FF002128
:1016E000D020FFF7C4FF00212020FFF7C0FF00211A
:1016F0000C20FFF7BCFFFFF774FF10BD70B5044668
:101700000D4645F040000021FFF7B1FF44F0800096
:101710000021FFF7ACFFFFF764FF70BD70B500213B
:101720000846FFF7EBFF00240BE0002505E0012150
:101730000020FFF79CFF681CC5B2542DF7DB601C2E
:10174000C4B2062CF1DBFFF74CFF70BD70B5044648
:10175000A4F12000C4B200250AE004EB44012B4AA6
:1017600002EB4101485D0121FFF781FF681CC5B212
:10177000062DF2DB70BD70B505460E4614463146A7
:101780002846FFF7BBFF03E02078FFF7DFFF641C6C
:1017900020780028F8D170BD70B505460E46144675
:1017A00031462846FFF7AAFF2046FFF7CFFF70BD5E
:1017B0002DE9F04107460E46154631463846FFF7FB
:1017C0009DFF002409E005EB4501114A02EBC10130
:1017D000085D0121FFF74BFF641C0C2CF3DB701C30
:1017E000C1B23846FFF78AFF0C2409E005EB45013A
:1017F000074A02EBC101085D0121FFF738FF641CB5
:10180000182CF3DBBDE8F081000801408A1A0008BB
:10181000B21C00082F4909682F4AB1FBF2F0B0F161
:10182000807F01D301211CE020F07F41491E4FF051
:10183000E022516100BF5117002905DA0F2109018B
:10184000264A0B23D15404E00F210901244A5317DF
:10185000D15400BF00214FF0E022916107211161B6
:10186000002109B100BFFEE74FF0E020006920F041
:1018700001004FF0E021086170471A4908604FF0FD
:10188000E021096941F001014FF0E022116100BF40
:10189000144909680029FBD170474FF47A7141431C
:1018A000104A11604FF0E021096941F001014FF049
:1018B000E022116100BF0B4909680029FBD1704784
:1018C0000848006820B107480068401E05490860C4
:1018D000704700005C000020A086010018ED00E0C9
:1018E00000E400E07000002008B501210820FFF7A7
:1018F00010FB0120ADF8000010208DF8030003203C
:101900008DF8020069464F48FFF750F801214D4815
:10191000FFF7F7F808BD08B50120ADF80000482032
:101920008DF8030069464748FFF740F808BD08B541
:101930000120ADF8000010208DF8030003208DF881
:10194000020069463F48FFF731F808BD70B5002531
:10195000002426E000BF01213A48FFF7B8F800282C
:10196000F9D00620FFF789FF01213648FFF7AFF8CD
:1019700001280DD100BF01213248FFF7A8F8012846
:10198000F9D0C4F1070101208840C0B2054306E048
:10199000C4F1070101208840C043C0B20540601C6B
:1019A000C4B2082CD6DB284670BD10B50446FFF73C
:1019B000BEFF01212348FFF7A6F81220FFF76DFFB5
:1019C00001212048FFF79DF80320FFF756FFFFF79E
:1019D000A2FF01211B48FFF77AF880BB00BF01215D
:1019E0001848FFF774F80028F9D000BF0121154806
:1019F000FFF76DF80128F9D0FFF7A8FF2070FFF777
:101A0000A5FF6070FFF7A2FFA070FFF79FFFE070D7
:101A1000FFF79CFF2071FFF78AFF01210948FFF7BC
:101A200070F8207861780844A1780844E178084487
:101A30002179884201D1012010BD0020FCE7FFE799
:101A40000020F9E7000C0140064C074D06E0E06875
:101A500040F0010394E8070098471034AC42F6D3F5
:101A6000FEF76AFBEC1D00080C1E000802E008C827
:101A7000121F08C1002AFAD170477047002001E008
:101A800001C1121F002AFBD17047000000000000B6
:101A90000000002F000000000700070000147F1462
:101AA0007F1400242A7F2A12006264081323003660
:101AB0004955225000000503000000001C2241008F
:101AC000000041221C000014083E08140008083ED3
:101AD0000808000000A060000008080808080000CE
:101AE00060600000002010080402003E5149453E9D
:101AF0000000427F400000426151494600214145BB
:101B00004B31001814127F10002745454539003C21
:101B10004A494930000171090503003649494936EF
:101B200000064949291E00003636000000005636DE
:101B300000000008142241000014141414140000C2
:101B40004122140800020151090600324959513E50
:101B5000007C1211127C007F49494936003E414108
:101B60004122007F4141221C007F49494941007FB9
:101B700009090901003E4149497A007F0808087FA8
:101B80000000417F4100002040413F01007F0814D8
:101B90002241007F40404040007F020C027F007FD6
:101BA0000408107F003E4141413E007F09090906BB
:101BB000003E4151215E007F0919294600464949EE
:101BC00049310001017F0101003F4040403F001FBB
:101BD0002040201F003F4038403F0063140814633A
:101BE00000070870080700615149454300007F4124
:101BF000410000552A552A55000041417F0000044C
:101C00000201020400404040404000000102040084
:101C1000002054545478007F4844443800384444E9
:101C2000442000384444487F003854545418000875
:101C30007E0901020018A4A4A47C007F0804047893
:101C40000000447D4000004080847D00007F10281B
:101C500044000000417F4000007C04180478007CB0
:101C60000804047800384444443800FC2424241830
:101C70000018242418FC007C08040408004854546C
:101C8000542000043F444020003C4040207C001C85
:101C90002040201C003C4030403C00442810284498
:101CA000001CA0A0A07C004464544C4414141414E0
:101CB0001414897200C05FD555D555DF00000700A8
:101CC0000407040704070407040000FE0A8ABEAAEA
:101CD000ABAABE0A0A0006010404040302030404BA
:101CE0000400000000008C8C0000000000000000D8
:101CF000000001010000000000000E0A0EF80402BE
:101D00000202048E00000000000001020202020133
:101D1000000088F11AC01FF515F5159F4000000757
:101D200004040507040705040400000000F8FC068D
:101D3000020000000000000000000103020000009B
:101D400000000000000206FCF80000000000000097
:101D5000000203010000000000002426524A42C392
:101D6000424A4A122600040404040407040404043A
:101D7000040008242B2A2A2A2A2AEA02000000004A
:101D8000000000000000030406000202F20202FE4E
:101D9000222222230200040407040407040404048A
:101DA0000400040683BAAAEBAAAABB8206000000BC
:101DB000030000070002020300008181412111FDA0
:101DC0000311214181000000000000070000000015
:101DD0000000000000000000000000000000000003
:101DE0000000000000000000000000000C1E0008C1
:101DF00000000020740000006C1A0008801E00081B
:101E000074000020CC0400007C1A0008573A2020FF
:101E1000202020543A20202020204B202231353011
:101E200037353533343836312200223135313834C4
:101E3000303332343632220000000100233C0000EF
:101E40000000000000000000000000000000000092
:101E50000100000000010203040102030406070858
:101E6000090204060800000000A24A040000000065
:101E7000000000000102030406070809000000003A
:0400000508000131BD
:00000001FF
